:100000000C9456000C9475000C9475000C947500BB
:100010000C9475000C9475000C9475000C9475008C
:100020000C9475000C9475000C9475000C9475007C
:100030000C9475000C9475000C9475000C9475006C
:100040000C9475000C9475000C9475000C9475005C
:100050000C9475000C9475000C9475000C9475004C
:100060000C9475000C9475000C9475000C9475003C
:100070000C9475000C9475000C9475000C9475002C
:100080000C9475000C9475000C947500C000C700AA
:10009000B101B801090151019901BF01E001FF015E
:1000A000E601EF01FF01FF01FF01F80111241FBE6E
:1000B000CFEFD0E4DEBFCDBF11E0A0E0B1E0E2E6DB
:1000C000F4E000E00BBF02C007900D92AE30B10724
:1000D000D9F711E0AEE0B1E001C01D92A231B10745
:1000E000E1F70E9404020C942F020C940000CF93BD
:1000F000DF9300D01F92CDB7DEB789837B836A83FD
:1001000089818A3031F48A819B81BC018DE00E9413
:10011000770080EC90E0FC018081882F90E0807275
:1001200099270097B1F386EC90E02981FC012083A8
:1001300080E090E00F900F900F90DF91CF910895A5
:10014000CF93DF931F92CDB7DEB786E290E0FC013C
:100150008081898380910F0190911001CC01A0E0F2
:10016000B0E040E050E027E030E0841B950B28171A
:10017000390708F40BC18A5B9F4FFC010C942602DF
:1001800081E090E09093100180930F0104C180E220
:1001900090E0FC018081882F90E083709927813066
:1001A000910591F488E290E0FC018081893060F44F
:1001B00082E090E09093100180930F0180911101F3
:1001C0008F5F8093110124C080E290E0FC01808168
:1001D000882F90E0837099278230910591F488E20E
:1001E00090E0FC018081882361F083E090E09093AF
:1001F000100180930F0180910E018F5F80930E019B
:1002000007C081E090E09093100180930F01C3C07C
:10021000C2C080E290E0FC018081882F90E0837072
:1002200099278130910539F484E090E09093100192
:1002300080930F0135C080E290E0FC018081882F1F
:1002400090E0837099278230910561F483E090E01B
:100250009093100180930F0180910E018F5F809326
:100260000E011EC080E290E0FC018081882F90E0AA
:10027000837099278330910561F480910E018F5F1F
:1002800080930E0187E090E09093100180930F011E
:1002900007C081E090E09093100180930F017BC034
:1002A0007AC080E290E0FC018081882F90E083702A
:1002B00099278230910539F485E090E09093100100
:1002C00080930F0135C080E290E0FC018081882F8F
:1002D00090E0837099278130910561F482E090E08D
:1002E0009093100180930F01809111018F5F809393
:1002F00011011EC080E290E0FC018081882F90E017
:10030000837099278330910561F4809111018F5F8B
:100310008093110187E090E09093100180930F018A
:1003200007C081E090E09093100180930F0133C0EB
:1003300032C080E290E0FC018081882F90E08370E1
:100340009927009739F481E090E090931001809311
:100350000F0121C086E090E09093100180930F017F
:100360001AC084E090E09093100180930F0113C0B5
:1003700085E090E09093100180930F010CC086E01F
:1003800090E09093100180930F0105C0109210012E
:1003900010920F01000080910F0190911001CC018B
:1003A000A0E0B0E040E050E027E030E0841B950B97
:1003B0002817390710F1825B9F4FFC010C9426022D
:1003C00088E290E027E0FC01208319C089818F5FDB
:1003D000898388E290E02981FC01208311C0898112
:1003E0008150898388E290E02981FC01208308C044
:1003F00088E290E0FC01108203C0000001C0000010
:100400000F90DF91CF910895CF93DF93CDB7DEB7F3
:1004100081E290E0FC01108282E290E02FEFFC018B
:10042000208387E290E02FEFFC01208388E290E0B8
:1004300027E0FC0120831092110110920E0110920E
:10044000100110920F010E94A000FDCFEE0FFF1FC0
:100450000024001C0BBE0790F691E02D0994F8943F
:02046000FFCFCC
:0E046200000000020000000077000000000013
:00000001FF
