:100000000C9446000C9465000C9465000C946500FB
:100010000C9465000C9465000C9465000C946500CC
:100020000C9465000C9465000C9465000C946500BC
:100030000C9465000C9465000C9465000C946500AC
:100040000C9465000C9465000C9465000C9465009C
:100050000C9465000C9465000C9465000C9465008C
:100060000C9465000C9465000C9465000C9465007C
:100070000C9465000C9465000C9465000C9465006C
:100080000C9465000C9465000C94650011241FBE4F
:10009000CFEFD0E4DEBFCDBF11E0A0E0B1E0ECE9EE
:1000A000F2E000E00BBF02C007900D92AE30B10746
:1000B000D9F711E0AEE0B1E001C01D92A031B10767
:1000C000E1F70E942B010C944C010C940000CF939B
:1000D000DF9300D01F92CDB7DEB789837B836A831D
:1000E00089818A3031F48A819B81BC018DE00E9434
:1000F000670080EC90E0FC018081882F90E08072A6
:1001000099270097B1F386EC90E02981FC012083C8
:1001100080E090E00F900F900F90DF91CF910895C5
:10012000CF93DF931F92CDB7DEB7898380910E0105
:1001300090910F0182309105F1F08330910530F4F8
:10014000009759F08130910579F04CC083309105CA
:1001500051F18430910571F145C081E090E09093B8
:100160000F0180930E0143C082E090E090930F0155
:1001700080930E013CC080E290E0FC018081882FDA
:1001800090E081709927009739F083E090E0909398
:100190000F0180930E012BC082E090E090930F013D
:1001A00080930E0124C084E090E090930F0180932F
:1001B0000E011DC080E290E0FC018081882F90E05C
:1001C00081709927009739F081E090E090930F01BA
:1001D00080930E010CC084E090E090930F01809317
:1001E0000E0105C010920F0110920E0100008091C7
:1001F0000E0190910F018230910589F082309105B6
:1002000038F08330910599F084309105B9F01EC023
:1002100085E290E021E0FC012083898118C085E21D
:1002200090E021E0FC01208389818F5F10C085E28E
:1002300090E022E0FC012083898109C085E290E002
:1002400022E0FC01208389818F5F01C089810F90AA
:10025000DF91CF910895CF93DF931F92CDB7DEB793
:1002600081E290E0FC01108282E290E02FEFFC013D
:10027000208384E290E02FEFFC01208385E290E070
:10028000FC011082198210920F0110920E018981D7
:0C0290000E9490008983F7CFF894FFCF04
:0E029C000000000200000000670000000000EB
:00000001FF
