:100000000C944D000C946C000C946C000C946C00DF
:100010000C946C000C946C000C946C000C946C00B0
:100020000C946C000C946C000C946C000C946C00A0
:100030000C946C000C946C000C946C000C946C0090
:100040000C946C000C946C000C946C000C946C0080
:100050000C946C000C946C000C946C000C946C0070
:100060000C946C000C946C000C946C000C946C0060
:100070000C946C000C946C000C946C000C946C0050
:100080000C946C000C946C000C946C00B800BF00D5
:10009000F90042019001A601AD0111241FBECFEF6E
:1000A000D0E4DEBFCDBF11E0A0E0B1E0EAE3F4E0D0
:1000B00000E00BBF02C007900D92AE30B107D9F738
:1000C00011E0AEE0B1E001C01D92A431B107E1F74B
:1000D0000E94ED010C941B020C940000CF93DF935F
:1000E00000D01F92CDB7DEB789837B836A83898175
:1000F0008A3031F48A819B81BC018DE00E946E00C0
:1001000080EC90E0FC018081882F90E0807299273C
:100110000097B1F386EC90E02981FC01208380E018
:1001200090E00F900F900F90DF91CF910895CF93B3
:10013000DF931F92CDB7DEB780E290E0FC018081B3
:10014000877889838091110190911201CC01A0E000
:10015000B0E040E050E026E030E0841B950B28172B
:10016000390708F40BC18A5B9F4FFC010C94120203
:1001700081E090E0909312018093110104C1898184
:10018000843061F482E090E0909312018093110139
:1001900080910F018F5F80930F012AC08981803881
:1001A00061F485E090E090931201809311018091B9
:1001B00010018F5F809310011BC08981823039F458
:1001C00081E090E0909312018093110111C0898128
:1001D000813039F481E090E0909312018093110115
:1001E00007C081E090E09093120180931101CBC091
:1001F000CAC08981882339F483E090E0909312018A
:10020000809311013EC08981843039F482E090E00E
:10021000909312018093110134C08981803861F478
:1002200085E090E09093120180931101809110017C
:100230008F5F8093100125C08981823061F481E055
:1002400090E0909312018093110180910E018F5FD5
:1002500080930E0116C08981813061F481E090E0C5
:100260009093120180931101809113018F5F80930D
:10027000130107C081E090E0909312018093110177
:1002800082C081C08981882339F483E090E0909313
:1002900012018093110143C08981843061F481E0AF
:1002A00090E0909312018093110180910F018F5F74
:1002B00080930F0134C08981803861F485E090E03B
:1002C0009093120180931101809110018F5F8093B0
:1002D000100125C08981823061F484E090E0909320
:1002E00012018093110180910E018F5F80930E01A6
:1002F00016C08981813061F481E090E09093120111
:1003000080931101809113018F5F8093130107C0C7
:1003100081E090E0909312018093110134C033C0CA
:100320008981803861F485E090E090931201809398
:100330001101809110018F5F8093100124C081E032
:1003400090E090931201809311011DC086E090E02F
:10035000909312018093110116C08981803839F47D
:1003600086E090E090931201809311010CC081E02F
:1003700090E0909312018093110105C01092120138
:1003800010921101000080911101909112018430AE
:10039000910520F481309105D8F40AC0853091058B
:1003A00091F08530910548F08630910589F011C0B3
:1003B00085E290E0FC0110820BC085E290E021E034
:1003C000FC01208306C085E290E0FC01108201C0A0
:1003D00000000F90DF91CF910895CF93DF93CDB7B9
:1003E000DEB781E290E0FC01108282E290E02FEF24
:1003F000FC01208384E290E02FEFFC01208385E262
:1004000090E0FC0110821092130110920E011092E4
:100410000F011092100110921201109211010E940E
:100420009700FDCFEE0FFF1F0024001C0BBE0790AE
:0A043000F691E02D0994F894FFCF37
:0E043A0000000002000000006E000000000044
:00000001FF
