:100000000C9446000C9465000C9465000C946500FB
:100010000C9465000C9465000C9465000C946500CC
:100020000C9465000C9465000C9465000C946500BC
:100030000C9465000C9465000C9465000C946500AC
:100040000C9465000C9465000C9465000C9465009C
:100050000C9465000C9465000C9465000C9465008C
:100060000C9465000C9465000C9465000C9465007C
:100070000C9465000C9465000C9465000C9465006C
:100080000C9465000C9465000C94650011241FBE4F
:10009000CFEFD0E4DEBFCDBF11E0A0E0B1E0ECEEE9
:1000A000F2E000E00BBF02C007900D92AE30B10746
:1000B000D9F711E0AEE0B1E001C01D92A031B10767
:1000C000E1F70E9453010C9474010C940000CF934B
:1000D000DF9300D01F92CDB7DEB789837B836A831D
:1000E00089818A3031F48A819B81BC018DE00E9434
:1000F000670080EC90E0FC018081882F90E08072A6
:1001000099270097B1F386EC90E02981FC012083C8
:1001100080E090E00F900F900F90DF91CF910895C5
:10012000CF93DF931F92CDB7DEB7898380910E0105
:1001300090910F0182309105A1F18330910530F447
:10014000009769F08130910589F076C08330910580
:1001500009F43FC08430910509F456C06DC081E0B8
:1001600090E090930F0180930E016BC080E290E0CD
:10017000FC018081882F90E081709927009739F0E9
:1001800082E090E090930F0180930E015AC081E0CD
:1001900090E090930F0180930E0189818F5F898396
:1001A00050C080E290E0FC018081882F90E0817057
:1001B0009927009739F082E090E090930F018093A7
:1001C0000E013FC083E090E090930F0180930E01F9
:1001D00038C080E290E0FC018081882F90E081703F
:1001E0009927009739F084E090E090930F01809375
:1001F0000E0127C083E090E090930F0180930E01E1
:1002000089818F5F89831DC080E290E0FC0180813D
:10021000882F90E081709927009739F084E090E072
:1002200090930F0180930E010CC081E090E09093B9
:100230000F0180930E0105C010920F0110920E0164
:10024000000080910E0190910F018230910589F09C
:100250008230910538F08330910591F0843091051A
:10026000B1F01CC085E290E021E0FC01208389818F
:1002700016C085E290E022E0FC01208389810FC056
:1002800085E290E022E0FC012083898108C085E2BC
:1002900090E021E0FC012083898101C089810F90D9
:1002A000DF91CF910895CF93DF931F92CDB7DEB743
:1002B00081E290E0FC01108282E290E02FEFFC01ED
:1002C000208384E290E02FEFFC01208385E290E020
:1002D000FC011082198210920F0110920E01898187
:0C02E0000E9490008983FBCFF894FFCFB0
:0E02EC0000000002000000006700000000009B
:00000001FF
